:020000040800F2
:100000000050002089060008590600085B06000819
:100010005D0600085F060008610600080000000099
:10002000000000000000000000000000630600085F
:100030006506000800000000670600086906000861
:10004000D1060008D1060008D1060008D106000834
:10005000D1060008D1060008D1060008D106000824
:10006000D1060008D1060008D10600086D06000878
:10007000D1060008D1060008D1060008D106000804
:10008000D1060008D1060008D1060008D1060008F4
:1000900079060008D1060008D1060008D10600083C
:1000A000D1060008D1060008D1060008D1060008D4
:1000B000D1060008D1060008D1060008D1060008C4
:1000C000D1060008D1060008D1060008D1060008B4
:1000D000D1060008D1060008D1060008D1060008A4
:1000E000D1060008D1060008D10600080000000073
:1000F0000000000000000000000000000000000000
:0C01000000000000000000005FF808F1A3
:10010C0010B5054C237833B9044B13B10448AFF345
:10011C0000800123237010BD842D002000000000FE
:10012C008041000808B5034B1BB103490348AFF3EA
:10013C00008008BD00000000882D002080410008D0
:10014C0010F8012B11F8013B012A28BF9A42F7D075
:10015C00D01A7047034613F8012B002AFBD1181A4A
:10016C000138704738B50A4B93F89C32032B0DD1EC
:10017C000024084D4FF48061284603F033FE01281B
:10018C00F8D001340A2C05F58065F3D138BD00BFD9
:10019C00682E0020840500200122014B1A70704744
:1001AC00A12D002010B5044631B10B49FFF7C8FF53
:1001BC0018B90122094B1A7010BD20460849FFF7E7
:1001CC00BFFF0028F8D1054B06211870BDE8104080
:1001DC00044803F007BE00BF98410008A02D002082
:1001EC009E410008A4410008074AD2F8FC3043F0B5
:1001FC008073C2F8FC300022044B5A601A6842F03B
:10020C0001021A60704700BF00ED00E0001000E032
:10021C00044B054A5868054B1B68B3FBF2F3B0FB63
:10022C00F3F07047001000E040420F000000002087
:10023C0008B50146FFF7ECFF401A08BD10B594B0A5
:10024C00142200210CA803F069FF142200210DEBED
:10025C00020003F063FF1022002101A803F05EFFEF
:10026C0002244FF480330122CDE91143CDE90A2356
:10027C004FF4E0130AA80E92139301F087FD08B116
:10028C0072B6FEE70F23CDE905344FF48063079077
:10029C00CDE90830214605A801F03AFF08B172B645
:1002AC00FEE7122301934FF40043CDE9033001A87C
:1002BC0001F0CAFF08B172B6FEE714B010BD000021
:1002CC002DE9F043814C93B000F022FAFFF7B6FF12
:1002DC00102200210BA803F021FFA369012243F097
:1002EC001003A361A3694FF4005103F010030193B1
:1002FC00019BA369764843F02003A361A369012500
:10030C0003F020030293029BA369002643F004032D
:10031C00A361A36903F004030393039BA36943F054
:10032C000803A361A36903F008030493049B00F082
:10033C0085FE4FF40053CDE90B35022364480BA91D
:10034C00CDE90D6300F0A6FD636932462B43636172
:10035C00636931462B400B200093009B00F048FC56
:10036C000B2000F075FC5B4C5B4B204623604FF47C
:10037C006023CDE90B660D96A66025732675E361A7
:10038C006660256100F0A4FB08B172B6FEE7CDE90A
:10039C000B050D900BA9204600F02CFA064608B16F
:1003AC0072B6FEE703F0CAFC1022314607A803F030
:1003BC00B5FE1C2231460BA8CDE9056603F0AEFE56
:1003CC004FF48C73454C4648A660C4E90003FF23E8
:1003DC002046C4E90336A66102F058F808B172B69B
:1003EC00FEE74FF48053204607A9079302F034F937
:1003FC0008B172B6FEE7204602F074F808B172B686
:10040C00FEE7CDE9050005A9204602F01DFA0246DB
:10041C0008B172B6FEE7602180230D90CDE90B1375
:10042C000F900BA9204602F0B5F808B172B6FEE7A2
:10043C00204600F0E5F841F201422A4B23F8025B1A
:10044C0001359542FAD1FFF7CFFEFFF7E1FE264DBD
:10045C004FF4A052234928601E4800F085FA002171
:10046C001E4802F0EFF980222368DFF88080204CD0
:10047C00174E5A632378012B5FFA83F9FAD10027C0
:10048C0028682770FFF7D4FE1A4BC8F800001B78B9
:10049C00012B14D130463A464FF4005100F0CEFDFA
:1004AC00FFF760FE282000F057F9FFF7B1FE0D4969
:1004BC0028604FF4A052074800F056FADAE74A4693
:1004CC004FF40051304600F0B9FDEEE70010024049
:1004DC0000100140302E002000240140A42D0020EB
:1004EC000008004084050020800100207C010020D1
:1004FC00A12D0020A02D002072B6FEE70E4B82B07D
:10050C009A6942F001029A619A6902F00102009222
:10051C00009ADA6942F08052DA61DB69074A03F02B
:10052C0080530193019B536823F0E06343F0007305
:10053C00536002B0704700BF001002400000014041
:10054C0030B5054687B01022002102A803F0E6FD65
:10055C002A681D4B9A4235D103F56C439A691B48A6
:10056C0042F400729A619A6902A902F40072009234
:10057C00009A9A69164C42F004029A619B69012216
:10058C0003F004030193019B0323CDE9022300F044
:10059C0081FC80204FF480720023C4E903024FF4E5
:1005AC0080620C49C4E90523C4E90013A3604FF42D
:1005BC0040532046E36100F06DFB08B1FFF79CFF50
:1005CC002C62656207B030BD002401400008014078
:1005DC00EC2D0020080002400268084B82B09A42C1
:1005EC000AD103F50233DA6942F00402DA61DB69FD
:1005FC0003F004030193019B02B070470008004014
:10060C0010B5044686B01022002102A803F086FD26
:10061C0022680C4B9A4213D103F502339A690A48AB
:10062C0042F008029A619B69402203F0080301938F
:10063C00019B022302A9CDE90223059300F02AFCB9
:10064C0006B010BD00080040000C0140FEE7FEE7BC
:10065C00FEE7FEE7FEE770477047704700F06AB8A8
:10066C00014800F083BB00BFEC2D0020014800F0D6
:10067C0079BD00BF8C39002070470000FFF7FCFFEC
:10068C000B480C490C4A002302E0D458C4500433E4
:10069C00C4188C42F9D3094A094C002301E01360B9
:1006AC000432A242FBD303F041FDFFF709FE704771
:1006BC00000000207C01002014420008842D002042
:1006CC00643C0020FEE7000038B50E4B05461A7856
:1006DC004FF47A73B3FBF2F30B4A1068B0FBF3F0F0
:1006EC0000F0C4FA044658B90F2D09D80246294621
:1006FC004FF0FF3000F07CFA2046044B1D6038BDF3
:10070C000120FCE70400002000000020080000206D
:10071C00074A08B51368032043F01003136000F078
:10072C0055FA0F20FFF7D0FFFFF7E8FE002008BDB9
:10073C0000200240034A044B11681B780B441360E1
:10074C00704700BF602E002004000020014B186889
:10075C00704700BF602E002038B50446FFF7F6FF47
:10076C000546631C1EBF044B1B78E418FFF7EEFF15
:10077C00431BA342FAD338BD04000020436A10B5D2
:10078C009A6A12F0500F1BD19A6A42F400729A6264
:10079C001A68926802F46022B2F5602F0CD11A7BB1
:1007AC0052B99A6A22F480729A629A6AD2045EBF33
:1007BC009A6A42F001029A621846FFF7EDFC10BDEE
:1007CC001B6ABDE810401B6B1847704708B5406AA0
:1007DC00FFF7FBFF08BD7047406A08B5836A43F01A
:1007EC0040038362C36A43F00403C362FFF7F3FF61
:1007FC0008BD0000002373B5019390F82430044623
:10080C00012B6CD0012380F824304D680268062D32
:10081C00086805EB850322D81F26556B053B9E40C7
:10082C0025EA060500FA03F32B43536309288B686A
:10083C0000EB40054FF0070129D9D6681E3DA940B1
:10084C0026EA0101AB400B43D360A0F11003012B4E
:10085C0025D90020002384F8243002B070BD0C2D63
:10086C004FF01F0509D8166B233B9D4026EA050562
:10087C0000FA03F32B431363D8E7D66A413B9D4040
:10088C0026EA050500FA03F32B43D362CEE7106981
:10089C00A94020EA0101AB400B431361D9E7114B8E
:1008AC009A4216D193681B02D3D49368102843F450
:1008BC0000039360CDD10C4B0C4A1B68B3FBF2F3D5
:1008CC000A2253430193019B002BC2D0019B013B95
:1008DC00F8E7A36A012043F02003A362BAE70220E1
:1008EC00BBE700BF002401400000002040420F0085
:1008FC00002337B50193036804469A68D20702D5E2
:10090C00002003B030BD9A6842F001029A60144B8B
:10091C00144A1B68B3FBF2F30193019BE3B9FFF795
:10092C0015FF054623689B68DB07E9D4FFF70EFF2C
:10093C00401B0228F6D923689B6813F00103F1D100
:10094C00A26A012042F01002A262E26A84F824300A
:10095C0042F00102E262D4E7019B013BDCE700BFFD
:10096C000000002040420F002DE9F041404B904622
:10097C00026804469A420F4602D03E498A4203D18D
:10098C005B6813F4702F6ED194F82430012B6CD06B
:10099C000123204684F82430FFF7AAFF06460028DE
:1009AC005DD1A56A2168334B25F4706525F00105EE
:1009BC0045F480759942A56204D12D4A536813F40D
:1009CC00702F3ED1A36A23F48013A3624B685A059F
:1009DC0005D5A36A23F4405343F48053A362A36A5E
:1009EC00206A13F4805318BFE36A3A4618BF23F009
:1009FC000603E362002384F824301F4B4C318362DE
:100A0C001E4BC3621E4B03636FF0020341F84C3C58
:100A1C0051F8443C43F4807341F8443C434600F0A5
:100A2C0069F923689A6802F46022B2F5602F9A681B
:100A3C000CBF42F4A00242F480129A603046BDE82A
:100A4C00F081A36A43F48013A36253685B0541BF32
:100A5C00A06A20F4405040F48050A062BFE700230D
:100A6C0084F82430EAE70126E8E70226E6E700BF2F
:100A7C00002401400028014089070008D90700081C
:100A8C00E507000838B5036804469A68D10701D415
:100A9C00002038BD9A6822F001029A60FFF756FEDA
:100AAC00054623689B68DB07F2D5FFF74FFE401B1A
:100ABC000228F6D923689B68DA07F2D5A36A0120CD
:100ACC0043F01003A362E36A43F00103E362E0E73F
:100ADC00F8B5044600286DD0836A23B9C36280F848
:100AEC002430FFF72DFD2046FFF7CCFFA36A13F04F
:100AFC00100361D100285FD1A26A616822F4885288
:100B0C0022F0020242F00202E569A668A262227B90
:100B1C002943B6F5807F41EA420136D0771E7D42EB
:100B2C007D412D02277D012F06D182BBA269013A9E
:100B3C0045EA423242F400652268B6F5807F576878
:100B4C0027F4694745EA0705556097681D4D05EA86
:100B5C00070545EA0105956001D0012E02D12369F4
:100B6C00013B1B05D56A25F470052B43D3629268B3
:100B7C00154B1340994213D10023E362A36A23F06F
:100B8C00030343F00103A362F8BD3546CAE7A26A2A
:100B9C0042F02002A262E26A42F00102E262CBE77A
:100BAC00A36A23F0120343F01003A362E36A43F039
:100BBC000103E3620120E7E7A36A43F01003A36299
:100BCC00F8E700BFFDF7E1FFFE0E1FFF0749030228
:100BDC00CA6803F4E06322F4E0621204120C1343BB
:100BEC0043F0BF6343F40033CB60704700ED00E08B
:100BFC00154B30B5DC68C4F30224C4F10703251D82
:100C0C00042B28BF0423062D4FF0FF3594BF00247E
:100C1C00033C05FA03F321EA0303A54022EA05028B
:100C2C00A340002843EA0203ACBF00F16040074A2E
:100C3C004FEA0313DBB2ABBF00F5614000F00F00CD
:100C4C0080F80033135430BD00ED00E014ED00E0EB
:100C5C00002807DB01234109034A00F01F008340F1
:100C6C0042F82130704700BF00E100E00138B0F1DC
:100C7C00807F0BD24FF0E023F021054A586182F8B7
:100C8C0023100020072298611A61704701207047D9
:100C9C0000ED00E0034610B530B301681420134A90
:100CAC000A44B2FBF0F292001A64114ADA6302228F
:100CBC0083F82120D3E901242243DC68086822430D
:100CCC001C696FF30D1022435C6922439C6922431B
:100CDC00DC69224302430A6000200122986383F8F6
:100CEC00200083F8212010BD0120FCE7F8FFFDBF98
:100CFC0000000240F0B590F82040012C34D00124C3
:100D0C0080F8204090F82140012CE5B24FF000040F
:100D1C0028D1022680F8216084630468266826F0B6
:100D2C0001062660D0E90F67BD40756063604368BB
:100D3C00102BC36A0BBFA260A160E160E2604BB1F3
:100D4C00236843F00E0300202360236843F0010363
:100D5C002360F0BD236823F004032360236843F071
:100D6C000A03F0E780F820400220F2E770B4042573
:100D7C00C66B026C3468036895402542196832D002
:100D8C004D0730D51A6896065EBF1A6822F0040229
:100D9C001A603E4A934219D01432934218D014323E
:100DAC00934217D01432934217D01432934217D077
:100DBC001432934214BF4FF080634FF48003344AD3
:100DCC005360C36A002B5ED070BC18470423F6E74F
:100DDC004023F4E74FF48063F1E74FF48043EEE7F0
:100DEC004FF48023EBE702259540254235D08D0743
:100DFC0033D51A68940606D41A6822F00A021A60CF
:100E0C00012280F82120214A934219D014329342B6
:100E1C0018D01432934217D01432934217D0143294
:100E2C00934217D01432934214BF4FF000734FF417
:100E3C000013174A5360002380F82030836AC1E7FF
:100E4C000223F6E72023F4E74FF40073F1E74FF4A5
:100E5C000053EEE74FF40033EBE7082595402542AD
:100E6C0011D009070FD5196821F00E011960012363
:100E7C0003FA02F27260836380F82130002380F859
:100E8C002030036B9EE770BC704700BF0800024027
:100E9C00000002402DE9F74F00244FF00F0E2646BC
:100EAC00DFF884C1614B00F104080A6832FA06F5D8
:100EBC0002D103B0BDE8F08F012505FA06F702EA6E
:100ECC00070537EA020276D14A68032A07D8013AA5
:100EDC00022A00F28380DFE802F091969C00122A2D
:100EEC0000F0948069D8112A00F08A80FF2D94BFFD
:100EFC008146C1464FEA8602D9F8007088BF203A75
:100F0C000EFA02FA27EA0A0704FA02F21743C9F8A2
:100F1C000070D1F8049019F0805F4CD0DCF81820E8
:100F2C0026F0030742F00102CCF81820DCF8182058
:100F3C0007F1804702F00102019207F5803706F0B5
:100F4C00030A019A4FEA8A0ABA680EFA0AFB22EAE5
:100F5C000B0B374A904260D002F5806290425ED013
:100F6C0002F5806290425CD002F58062904214BF20
:100F7C000422032202FA0AF242EA0B02BA609A68CD
:100F8C0019F4801F14BF2A43AA439A60DA6819F433
:100F9C00001F14BF2A43AA43DA605A6819F4003FB1
:100FAC0014BF2A43AA435A601A6819F4803F14BF2D
:100FBC002A43AA431A60013677E7DFF878904A454E
:100FCC000CD014D8A9F580194A4507D009F5702919
:100FDC004A4503D0A9F580194A4587D18A68D2B110
:100FEC00012A4FF008040CBF076147617EE7DFF868
:100FFC0048904A45F2D009F58039EDE7CC6875E7A1
:10100C00CC68043472E7CC6808346FE7CC680C34D5
:10101C006CE700246AE7042468E70022AAE70122AF
:10102C00A8E70222A6E700BF00100240000401401E
:10103C000008014000002210000031100AB10161CB
:10104C0070470904FBE7F8B50446E0B190F891321B
:10105C0003F0FF021BB980F8902202F057FF032324
:10106C0084F8913200232546637155F8040B01F086
:10107C0029FC95E80E00206801F014FC014628B10B
:10108C00022384F8913201252846F8BD206801F02E
:10109C0023FC0028F4D102460127267904F1100321
:1010AC00C1B28E4203F1280318D800210A4604F578
:1010BC00A873C8B2864203F128031BD895E80E002A
:1010CC00206801F00BFC05460028D9D10123607380
:1010DC00206884F8913201F0B7FED5E743E9062287
:1010EC0003F8277C03F8281C03F8252C43F8102C54
:1010FC000130D5E743E9062203F8272C03F8280C26
:10110C0003F8252C43F8102C0131D2E738B590F8B0
:10111C0090320446012B10D0012580F890520068C3
:10112C0001F0C7FB2946204602F0F7FF206801F0CA
:10113C0089FE002084F8900238BD0220FCE710B52F
:10114C0090F890220446012A0AD00122417380F8BB
:10115C009022006801F070FE002084F8900210BD0F
:10116C000220FCE72DE9F04F044685B0006801F041
:10117C006DFE10F4004500F04F842825C64E206803
:10118C00B0F844301F0402D405B0BDE8F08FB0F8BD
:10119C00443013F00F0799B240F0C08011F01001E9
:1011AC0026D103889BB2334043F400430380B0F84C
:1011BC005030227C9BB203EBC20300EB4303B3F829
:1011CC000434626AC3F309031A44E3622046626280
:1011DC0002F0CBFE637B002BD1D0A26A2168002ADF
:1011EC00CDD1637B43F08003A1F84C306273C6E72A
:1011FC000788BBB217F4006721D0B0F8503094F8D0
:10120C0050219BB203EBC20300EB4303B3F80C3445
:10121C00B4F85621C3F30903C4F86C3104F52671F4
:10122C0002F05FF822682046138823F070031B0538
:10123C001B0D43F08003138002F088FE9FE7190416
:10124C009DD5038823F070031B051B0D43F0800311
:10125C000380B0F8503094F850219BB203EBC203DA
:10126C0000EB4303B3F80C34C3F30903C4F86C313B
:10127C008BB1D4F8641171B1B4F8562102F031F885
:10128C00D4F86431D4F86C21394613442046C4F8A0
:10129C00643102F061FE21680A8893B212053FF5B1
:1012AC006EAF03F44053B3F5405F3FF468AFB1F851
:1012BC00502001F20C4092B2835AC3F309038352BB
:1012CC00D4F860313E2B1DD95F09DB06835A08BF69
:1012DC0007F1FF379BB243EA87236FEA43436FEA78
:1012EC0053439BB283520B8823F4804323F0700347
:1012FC001B041B0C83F4405343F4004343F0800362
:10130C000B803CE70BB9835AE7E75F08DB07835A8E
:10131C0048BF01379BB243EA8723E2E730F8273016
:10132C0019041FFA83F840F1F68030F8273005FBDA
:10133C00074123F070031B051B0D43F0800320F8BD
:10134C00273091F85C3100F5806EBBB9B0F85030A5
:10135C0091F850219BB2063303EBC2033EF8139075
:10136C00C9F30909B9F1000F00F0BA804B46B1F886
:10137C005621D1F8641101F0B4FFB1E091F853316A
:10138C0091F85021022B40F08980B0F850904FEA30
:10139C00C20B1FFA89F918F4804AD1F86831D94484
:1013AC0008F0400C3CD009F102093EF81990C9F341
:1013BC000909994513D90023C1F8683130F8223056
:1013CC0023F4804323F070031B041B0C83F40053A1
:1013DC0043F4004343F0800320F8223005E0A3EBF4
:1013EC000903C1F86831002BE8D0BCF1000F0DD017
:1013FC0030F8223023F4E04323F070031B041B0C61
:10140C0043F4004343F0C00320F82230B9F1000F3D
:10141C0066D0282101FB07414B46B1F85821A8E7BB
:10142C0009F106093EF81990C9F30909994512D931
:10143C00C1F868A130F8223023F4804323F0700304
:10144C001B041B0C83F4005343F4004343F0800350
:10145C0020F8223005E0A3EB0903C1F86831002B1A
:10146C00E8D0BCF1000F0DD130F8223023F4E0436A
:10147C0023F070031B041B0C43F4004343F0C00324
:10148C0020F82230B9F1000F2AD0282101FB0741A6
:10149C004B46B1F85A216CE70F8FFFFF30F8223022
:1014AC0023F4E04323F070031B041B0C43F40043B0
:1014BC0043F0C00320F8223091F8503130F823204B
:1014CC00DB0012F4804FB0F8502092B254D00232AC
:1014DC0013443EF81390C9F30909B9F1000F9BD1DD
:1014EC0005FB07F16318D3F86C214A44C3F86C214F
:1014FC00D3F864214A44C3F86421D3F868211AB1A3
:10150C00D3F86031994541D205FB0743204693F847
:10151C00501102F021FD18F0800F20683FF42FAE1F
:10152C0030F8273005FB07FC9BB2334043F40043F3
:10153C0020F8273004EB0C03DA7C012A56D1002169
:10154C0007FB0552A1501A7F92B318F040085A7C41
:10155C0036D012BBB0F850201B7C92B21B0100F2AB
:10156C00044010441A5AC2F309021A521A5A92B27F
:10157C0042F400421A521BE0063213443EF8139018
:10158C00C9F30909B9F1000FAAD081E701F5A871D7
:10159C002068214401F070FCBDE7012A08D1B0F8A5
:1015AC0050201B7C92B200F204401B0110441952D3
:1015BC00282303FB0743197C204602F0D6FCDEE50A
:1015CC003AB9B0F850201B7C92B21B0100F20C40CF
:1015DC00C7E7012AECD1B0F850201B7C92B200F284
:1015EC000C401B01104423F80080E1E7197C18F42F
:1015FC00807E9A6A4FEAC10A00F580691BD1B0F867
:10160C005070BFB25744023739F81770C7F3090747
:10161C00974202D3C3F828E0CEE7D21B9A625A6AEB
:10162C000CF110013A445A62DA6A21443A44DA6203
:10163C0001F022FCA3E5B0F850C018F0400E1FFAE0
:10164C008CFCD44408F4804800F0F4800CF1020CBB
:10165C0039F81CC01FFA88F8CCF3090C94452CBF40
:10166C000022A2EB0C029A62002A5BD1282303FB16
:10167C0007435B7C002B41D1B0F8502000F2044CA6
:10168C0092B20B0194443CF80320C2F309022CF8EB
:10169C0003203CF803206FEA42426FEA524292B2B6
:1016AC002CF80320B0F8502000F20C4092B21044F9
:1016BC00C25AC2F30902C252C25A6FEA42426FEADC
:1016CC00524292B2C252204602F04FFCB8F1000FC7
:1016DC0000F0F480282303FB07432268197C32F8BE
:1016EC00213023F4E04323F070031B041B0C43F460
:1016FC00404343F0800322F82130DFE0012BE2D19C
:10170C00B0F850E000F2044C1FFA8EFEF4440B01CA
:10171C002CF80320B0F850C000F20C401FFA8CFCDF
:10172C006044CFE7B8F1000F0DD030F8212022F43F
:10173C00E04222F070021204120C42F4404242F0D9
:10174C00800220F821204FF0280808FB074898F861
:10175C003420012A40F0B280D8F8242002EB0C0E81
:10176C00C8F824E0DA6A6244DA62D8F83030D8F883
:10177C002020934235D39B1AC8F83030282303FB22
:10178C00074393F811C093B2BCF1000F45D1B0F8E8
:10179C00508000F2044C1FFA88F8C44409013CF84C
:1017AC0001803E2AC8F309082CF8018025D94FEA9C
:1017BC005218D2063CF8012008BF08F1FF3892B24B
:1017CC0042EA88226FEA42426FEA524292B22CF805
:1017DC000120282202FB0742128B714601F03CFBD0
:1017EC006CE01BB9624688F83430C7E7002288F8F1
:1017FC003420C8F830201A46C0E712B93CF8012052
:10180C00E0E74FEA5208D2073CF8012048BF08F144
:10181C00010892B242EA8822D8E7BCF1010FD8D174
:10182C00B0F850C000F204421FFA8CFC624409016B
:10183C005352CEE70CF1060C39F81CC01FFA88F88D
:10184C00CCF3090C94458CBF7246A2EB0C029A6245
:10185C00002A5DD1282303FB07435B7C002B43D17B
:10186C00B0F8502000F2044C92B20B0194443CF8B6
:10187C000320C2F309022CF803203CF803206FEA82
:10188C0042426FEA524292B22CF80320B0F8502038
:10189C0000F20C4092B21044C25AC2F30902C25276
:1018AC00C25A6FEA42426FEA524292B2C252204688
:1018BC0002F05BFBB8F1000F3FF40CAF282303FBE5
:1018CC0007432268197C32F8213023F4E04323F0DB
:1018DC0040031B041B0C83F0300343F4004343F020
:1018EC00800322F821304AE4012BE0D1B0F850E01B
:1018FC0000F2044C1FFA8EFEF4440B012CF803206A
:10190C00B0F850C000F20C401FFA8CFC6044CDE7DC
:10191C00B8F1000F0DD130F8212022F4E04222F072
:10192C0070021204120C42F4404242F0800220F881
:10193C0021204FF0280808FB074898F83420012A8A
:10194C00BCD1D8F8242002EB0C0EC8F824E0DA6ADB
:10195C006244DA62D8F83030D8F82020934232D37F
:10196C009B1AC8F83030282303FB074393F811C0A7
:10197C0093B2BCF1000F42D1B0F8508000F20C4C85
:10198C001FFA88F8C44409013CF801803E2AC8F3C8
:10199C0009082CF8018022D94FEA5218D2063CF8DB
:1019AC00012008BF08F1FF3892B242EA88226FEAA0
:1019BC0042426FEA524292B22CF80120282202FBDA
:1019CC000742528B09E71BB9624688F83430CAE7E4
:1019DC000022C8F8302088F834201A46C3E712B920
:1019EC003CF80120E3E74FEA5208D2073CF801200B
:1019FC0048BF08F1010892B242EA8822DBE7BCF149
:101A0C00010FDBD1B0F8502000F20C4C92B2944490
:101A1C000A012CF80230D1E7460512D5226820467F
:101A2C00B2F8443023F480631B041B0CA2F844303E
:101A3C0002F0A7FA2946204605B0BDE8F04FFFF7A3
:101A4C007EBB41040AD52268B2F8443023F48043AB
:101A5C001B041B0CA2F84430FFF796BB820405D57F
:101A6C002268B2F8443023F40053F1E7C30419D5CB
:101A7C0022682046B2F8403023F004031B041B0CF0
:101A8C00A2F84030B2F8403023F008031B041B0CC2
:101A9C00A2F8403002F098FA2268B2F8443023F4ED
:101AAC008053D5E7070548D568462368064619468E
:101ABC001A4603F1200532F8047B954226F8027B86
:101ACC00F9D1B3F8402092B242F00102A3F84020C1
:101ADC00B3F8402022F001021204120CA3F84020AB
:101AEC00B3F844205605FBD5B3F8442022F48062A9
:101AFC001204120CA3F8442030F8022B21F8042B0A
:101B0C008D42F9D1B3F84020204692B242F008023F
:101B1C00A3F84020B3F8442022F400621204120C03
:101B2C00A3F84420B3F8402092B242F00402A3F888
:101B3C00402002F039FAFFF727BB82050DD5226849
:101B4C002046B2F8443023F400731B041B0CA2F89B
:101B5C00443002F012FAFFF717BBC3057FF514AB44
:101B6C002268B2F8443023F4807371E770B52824EE
:101B7C00054601F00700444311F0800F14BF04F137
:101B8C00100104F5A87105EB040615BF012400240F
:101B9C00747486F8514114BF49194919022BCB7042
:101BAC0008BF0023087008BF0B710A6195F89032CA
:101BBC00012B09D00123286885F8903200F0A0FE93
:101BCC00002085F8900270BD0220FCE7282301F06C
:101BDC000702534311F0800F10B5044618BF03F1F0
:101BEC00100118440BBF03F5A87101230023091938
:101BFC000ABF0919437480F851310A7094F8903275
:101C0C00012B09D00123206884F8903200F0D8FF12
:101C1C00002084F8900210BD0220FCE770B5282447
:101C2C00002601F007014C43051985F8501104F505
:101C3C00A8710144C5E95923C5F86C6185F8516157
:101C4C00006801F019F9304670BD282301F0070136
:101C5C0003FB0100D0F86C01704770B5282501F02A
:101C6C0007014D4344190026C4E9092301222174BC
:101C7C0005F11001014484F834202363E662627498
:101C8C00006801F0F9F8304670BD38B5037901F001
:101C9C000705AB4204462AD311F0800F4FF02803FE
:101CAC001CD001226B4303F11001034401445A740C
:101CBC0001230D708B7094F890229A4219D02068F1
:101CCC0084F8903201F04FF825B9206804F526719C
:101CDC0001F0C0F8002084F8900238BD00224B437C
:101CEC0003F5A8710344014483F85121E0E7012076
:101CFC00F3E70220F1E738B5027901F00F039A42BD
:101D0C00044626D3282301F00702534311F0800F19
:101D1C0014BF03F1100103F5A87118444FF000052E
:101D2C0015BF012300230919091914BF437480F846
:101D3C0051318D700A7094F89032012B0BD0012325
:101D4C00206884F8903201F02EF8284684F89052DE
:101D5C0038BD0120FCE70220FAE710B5282411F069
:101D6C00800F1BBF01F0070104FB010004FB010005
:101D7C00103008BF00F5A87099B21AB90273C1806F
:101D8C00002010BD012283600273F9E72DE9F341B5
:101D9C00054638B30368DB0710D42B689F075ED465
:101DAC002B68190700F195802B685A0700F1C18048
:101DBC00EB69002B40F02C81002029E0904C6368EB
:101DCC0003F00C03042B07D0636803F00C03082BFF
:101DDC000AD16368DE0307D523689C03DDD56B68E5
:101DEC00002BDAD1012013E06B68B3F5803F12D1E0
:101DFC00236843F480332360FEF7A8FC064623686F
:101E0C009803CAD4FEF7A2FC801B6428F7D90320E0
:101E1C0002B0BDE8F0819BB9236823F480332360C2
:101E2C00236823F480232360FEF790FC0646236886
:101E3C009903B2D5FEF78AFC801B6428F7D9E6E734
:101E4C00B3F5A02F236803D143F480232360CFE79D
:101E5C0023F480332360236823F48023CBE7684C7E
:101E6C00636813F00C0F07D0636803F00C03082BA6
:101E7C0010D16368DA030DD423689B0702D52B6954
:101E8C00012BAFD123686A6923F0F80343EAC2033C
:101E9C00236085E72A695B4B6AB101221A60FEF761
:101EAC0055FC064623689F07ECD4FEF74FFC801BBD
:101EBC000228F7D9ABE71A60FEF748FC0646236800
:101ECC0098077FF56DAFFEF741FC801B0228F6D911
:101EDC009DE7AA694A4E4B4BE2B10122C3F880241C
:101EEC00FEF734FC0446736A9B070DD54FF4FA5287
:101EFC00454B1B68B3FBF2F3019300BF019B5A1EC9
:101F0C000192002BF9D14FE7FEF720FC001B0228B1
:101F1C00E9D97CE7C3F88024FEF718FC0446736A01
:101F2C009F077FF541AFFEF711FC001B0228F6D985
:101F3C006DE7334CE369D80024D40127E36943F0FF
:101F4C008053E361E36903F080530093009B2F4EB1
:101F5C003368D90518D5EB68012B26D1236A43F0D9
:101F6C0001032362FEF7F2FB41F288380646236A2E
:101F7C009B073FD5002F3FF41BAFE36923F0805341
:101F8C00E36115E70027E2E7336843F480733360BD
:101F9C00FEF7DCFB80463368DA05DCD4FEF7D6FBB3
:101FAC00A0EB08006428F6D931E7ABB9236A41F2FB
:101FBC00883823F001032362236A23F0040323628D
:101FCC00FEF7C4FB0646236A9807D3D5FEF7BEFB83
:101FDC00801B4045F7D91AE7052B236A03D143F040
:101FEC0004032362BAE723F001032362236A23F07C
:101FFC000403B6E7FEF7AAFB801B4045B7D906E7FA
:10200C00001002400000424200000020007000401E
:10201C002A4C626802F00C02082A3ED00022022BE5
:10202C00274B1A662CD1FEF791FB064623689901C3
:10203C0020D42B6AB3F5803F05D16268A96822F4DD
:10204C0000320A436260696A62680B4322F47412BC
:10205C001343012263601A4B1A66FEF777FB0546A1
:10206C0023689A013FF5A8AEFEF770FB401B0228CF
:10207C00F6D9CCE6FEF76AFB801B0228D6D9C6E659
:10208C00FEF764FB054623689B017FF595AEFEF7D2
:10209C005DFB401B0228F6D9B9E6012B3FF4A2AE3A
:1020AC0060682B6A00F480329A427FF49BAE6B6AB4
:1020BC0000F47010C01A18BF0120A9E600100240ED
:1020CC00000042420D4A536803F00C01082912D15A
:1020DC000B48C3F38341DB03405C09D55368094AC1
:1020EC00C3F340435043084AD35CB0FBF3F0704752
:1020FC00064B584370470348704700BF001002401E
:10210C00F241000800127A00F041000800093D007D
:10211C002DE9F0410D46044610B90120BDE8F081CF
:10212C00444A136803F007038B4228D321688E07B7
:10213C0030D4CA0743D43F4A136803F00703AB42B9
:10214C0065D822683C4D12F0040F6CD1130706D5EC
:10215C006B68226923F4605343EAC2036B60FFF798
:10216C00B1FF6B68354AC3F30313D35CD840344BCF
:10217C001860344B1868FEF7A7FA0020CEE71368F6
:10218C0023F007030B431360136803F007038B4220
:10219C00C3D1CBE7284B11F0040F1EBF5A6842F491
:1021AC00E0625A60080742BF5A6842F460525A60B3
:1021BC005A68A06822F0F00202435A60B9E76268DC
:1021CC001D4E012A33681AD113F4003FA5D0736851
:1021DC0041F2883823F0030313437360FEF7B6FA19
:1021EC0007467368626803F00C03B3EB820FA2D04E
:1021FC00FEF7ACFAC01B4045F3D903208EE7022A48
:10220C0002D113F0007FE1E713F0020FDEE7136851
:10221C0023F007032B431360136803F00703AB424F
:10222C007FF47BAF8DE76B68E16823F4E0630B43CD
:10223C006B608BE70020024000100240E041000878
:10224C00000000200800002003682DE9F34105463A
:10225C00D80721D5364CE369D9002BD40126E36984
:10226C0043F08053E361E36903F080530193019BD6
:10227C00304F3B68DA051FD5236A6A6813F4407344
:10228C002ED1236A6A6823F44073134323621EB170
:10229C00E36923F08053E3612A68910706D524494A
:1022AC00A8684B6823F4404303434B60D30636D4F1
:1022BC00002012E00026DBE73B6843F480733B60B0
:1022CC00FEF744FA80463B68DB05D5D4FEF73EFAB0
:1022DC00A0EB08006428F6D9032002B0BDE8F08119
:1022EC0002F440729A42CCD00120134A236AC2F8FD
:1022FC004004002023F44071DF07C2F8400421623F
:10230C00BFD5FEF723FA41F288380746236A9807AF
:10231C00B7D4FEF71BFAC01B4045F7D9DCE7044ADB
:10232C00E968536823F480030B435360C0E700BF94
:10233C00001002400070004000004242036A026A32
:10234C0070B522F001020262446882690D6822F0C5
:10235C0073022A438D6823F002032B430A4DA842D3
:10236C000BD1CD6823F008032B4324F44074D1E93E
:10237C000556354323F004032C43446082614A68BC
:10238C004263036270BD00BF002C0140036A026A05
:10239C0070B522F4807202624468C2690D6822F042
:1023AC0073022A438D6823F4007343EA05230B4D13
:1023BC00A8420DD1CD6823F4006343EA052324F42D
:1023CC004054D1E90556354323F4806344EA05149F
:1023DC004460C2614A68C263036270BD002C014054
:1023EC00036A026A30B522F4805202624468C26900
:1023FC000D6822F4E64242EA05228D6823F400536C
:10240C0043EA0533064DA84202BF4D6924F48044CB
:10241C0044EA85144460C2614A680264036230BDB8
:10242C00002C014070470000174A036890420AD004
:10243C00B0F1804F07D0A2F59432904203D002F550
:10244C008062904207D14A6823F070031343CA6834
:10245C0023F4407313434A6923F08003134303604E
:10246C008B68C3620B688362074B984204BF0B698D
:10247C000363012343610369DB0742BF036923F054
:10248C0001030361704700BF002C014010B50446E6
:10249C0030B390F83D3003F0FF021BB980F83C20BC
:1024AC00FEF79AF80223206884F83D30211DFFF7CF
:1024BC00BBFF0123002084F8463084F83E3084F8BA
:1024CC003F3084F8403084F8413084F8423084F84E
:1024DC00433084F8443084F8453084F83D3010BDE6
:1024EC000120FCE710B5044630B390F83D3003F002
:1024FC00FF021BB980F83C20FFF794FF02232068F1
:10250C0084F83D30211DFFF78FFF0123002084F854
:10251C00463084F83E3084F83F3084F8403084F8FC
:10252C00413084F8423084F8433084F8443084F8E5
:10253C00453084F83D3010BD0120FCE7036A026A87
:10254C0070B522F010020262446882690D6822F4B0
:10255C00E64242EA05228D6823F0200343EA051384
:10256C000B4DA8420DD1CD6823F0800343EA05132F
:10257C0024F44064D1E90556354323F0400344EA82
:10258C008504446082614A688263036270BD00BF47
:10259C00002C014038B590F83C300446012B4FD04C
:1025AC000120082A84F83C003AD006D8BAB1042A93
:1025BC0026D0002384F83C3038BD0C2AF9D1206891
:1025CC00FFF70EFFC3690A6943F40063C361C36973
:1025DC0023F48063C361C36943EA02232EE02068BD
:1025EC00FFF7ACFE83690A6943F0080383618369D2
:1025FC0023F0040383618369134383610020D8E7CC
:10260C002068FFF79BFF83690A6943F400638361C9
:10261C00836923F480638361836943EA0223ECE7D3
:10262C002068FFF7B3FEC3690A6943F00803C3616E
:10263C00C36923F00403C361C3691343C361DDE7BA
:10264C000220B9E710B584680A4324F47F4442EAB7
:10265C0003222243826010BD38B590F83C3004460A
:10266C00012B4FF0020000F08E80012284F83D0017
:10267C00206884F83C20836823F47F4323F077039D
:10268C0083600B68602B4FD032D8402B64D016D8A7
:10269C00202B0DD00AD833F0100109D0012384F877
:1026AC003D30002384F83C30104638BD302BF5D13A
:1026BC00826822F07002134343F0070328E0502B8A
:1026CC00ECD14A68CD68016A036A21F00A0123F053
:1026DC000103036283690A4323F0F00343EA051301
:1026EC0083610262836823F0700343F057030FE0A9
:1026FC00B3F5805F0DD0B3F5005F0CD0702BCDD14E
:10270C00CB68D1E90121FFF79DFF836843F0770384
:10271C0083600022C2E7CB68D1E90121FFF792FF69
:10272C00836843F48043F3E7036A026A4D6822F03E
:10273C001002C9680262826923F0A00322F470427D
:10274C0043EA051342EA013282610362836823F093
:10275C00700343F06703DBE74A68CD68016A036ADC
:10276C0021F00A0123F00103036283690A4323F079
:10277C00F00343EA051383610262836823F070035C
:10278C0043F04703C4E702468EE710B50124036A01
:10279C0001F01F018C4023EA04030362036A8A40A0
:1027AC001A43026210BD000008B529B990F83E30FA
:1027BC00012B1DD001202EE0042907D190F83F30C9
:1027CC00012BF7D1022380F83F3014E0082907D100
:1027DC0090F84030012BEDD1022380F840300AE014
:1027EC0090F84130012BE5D1022380F8413002E012
:1027FC00022380F83E3000680122FFF7C6FF0F4B22
:10280C00984209D0B0F1804F0BD1836803F00703D5
:10281C00062B0DD1002008BD436C43F400434364E8
:10282C00F3E7074B9842F0D003F580639842ECD065
:10283C00036843F001030360ECE700BF002C014088
:10284C0000040040FFF7B0BF30B590F83C300246B2
:10285C00012B4FF0020022D0136882F83D005C6817
:10286C000D6824F070042C4398685C600C4CA342F7
:10287C000AD0B3F1804F07D0A4F59434A34203D00F
:10288C0004F58064A34204D1496820F08000014320
:10289C0099600123002082F83D3082F83C0030BD65
:1028AC00002C014084B004A800E90E00002004B004
:1028BC00704703464FF43F420020A3F84400A3F8AE
:1028CC0040207047B0F8403023F47C535B045B0C21
:1028DC00A0F8403000207047002070471FB5044618
:1028EC0004A800E90E0000200123A4F84030A4F84D
:1028FC004000A4F84400A4F8500004B010BD00003F
:10290C00F0B50A78CD7830F82240034624F4EC4434
:10291C0024F070042404240C032D03D8DFE805F004
:10292C0041494745012048F28006344323F82240B0
:10293C0033F822409F4FA4B23C401443344323F855
:10294C0022400C7B03EB021C002C40F08D80CC88C9
:10295C004E78640864007EB3B3F8501089B26144B9
:10296C00A1F8004433F82210490609D533F8221097
:10297C0089B2394041F4004141F0C00123F82210E2
:10298C0033F822108C4C89B2012D01EA040101D0DC
:10299C0081F0200141F4004141F0800123F8221024
:1029AC004CE0284644F40074BDE744F4C0640020B5
:1029BC00B9E744F48064FAE7B3F850500969ADB252
:1029CC006544A5F80844B3F850403E29A4B26444C9
:1029DC00B4F80C54C5F30905A4F80C542FD94D09BF
:1029EC00CE06B4F80C1408BF05F1FF3589B241EAE4
:1029FC0085216FEA41416FEA514189B2A4F80C1468
:102A0C0033F822104F040DD533F8221021F4E04195
:102A1C0021F070010904090C41F4404141F080019E
:102A2C0023F82210654CC2B91A8892B2224082F463
:102A3C00405242F4004242F080021A80F0BD11B9BB
:102A4C00B4F80C14D5E74D08C907B4F80C1448BFFA
:102A5C00013589B241EA8521CFE733F8221089B2DA
:102A6C00214081F4005195E7022D33F822405BD1CF
:102A7C00A4B23C4044F4014444F0800423F82240C6
:102A8C00B3F850400E89A4B2760864447600A4F8DA
:102A9C0000644E89B3F850407608A4B264447600C2
:102AAC00A4F808644978002948D133F822104E0460
:102ABC000DD533F8221021F4E04121F07001090406
:102ACC00090C41F4404141F0800123F8221033F805
:102ADC0022104D060DD533F8221021F4E04121F0DF
:102AEC0070010904090C41F4004141F0C00123F8C4
:102AFC00221048F2800433F8221021F4804121F096
:102B0C0070010904090C81F44051214323F822106F
:102B1C0033F8221021F4E04121F040010904090CA2
:102B2C000C4323F8224089E724F4E24424F0700497
:102B3C002404240C264323F82260A1E733F8221046
:102B4C004C040DD533F8221021F4E04121F0700132
:102B5C000904090C41F4404141F0800123F8221092
:102B6C0033F8221049060DD533F8221021F4E04138
:102B7C0021F070010904090C41F4004141F0C0013D
:102B8C0023F8221033F822100B4C89B22140012D6E
:102B9C0018BF81F0200141F4004141F0800123F87D
:102BAC00221033F8221021F4804121F07001090425
:102BBC00090CEFE68F8FFFFFBF8FFFFF8FBFFFFF6B
:102BCC004A780B78097BD9BB0AB330F8232051061D
:102BDC000DD530F8232022F4E04222F070021204CA
:102BEC00120C42F4004242F0C00220F8232030F8CC
:102BFC00232022F4E04222F040021204120C42F490
:102C0C00004242F0800220F823200020704730F868
:102C1C00232052040DD530F8232022F4E04222F078
:102C2C0070021204120C42F4404242F0800220F86E
:102C3C00232030F8232022F4804222F07002DCE7BB
:102C4C00002A4AD130F8232051040DD530F8232026
:102C5C0022F4E04222F070021204120C42F44042C0
:102C6C0042F0800220F8232030F8232052060DD5A4
:102C7C0030F8232022F4E04222F070021204120CED
:102C8C0042F4004242F0C00220F8232048F28001B6
:102C9C0030F8232022F4E04222F070021204120CCD
:102CAC0042F4004242F0C00220F8232030F82320E6
:102CBC0022F4804222F070021204120C0A4320F813
:102CCC00232030F8232022F4E04222F040021204A8
:102CDC00120C114320F8231097E730F823205104ED
:102CEC000DD530F8232022F4E04222F070021204B9
:102CFC00120C42F4404242F0800220F8232030F8BB
:102D0C00232052060DD530F8232022F4E04222F085
:102D1C0070021204120C42F4004242F0C00220F87D
:102D2C00232048F2800130F8232022F4E04222F0E4
:102D3C0070021204120C42F4404242F0800220F85D
:102D4C00232030F8232022F4E04222F04002120427
:102D5C00120C0A4320F8232030F8232022F480425E
:102D6C0022F07002B3E74B780A788BB130F822303E
:102D7C0023F4E04323F040031B041B0C83F01003EB
:102D8C0043F4004343F0800320F8223000207047C6
:102D9C0030F8223023F4804323F070031B041B0C07
:102DAC0083F48053ECE70B7B3BBB4B780A7833B353
:102DBC0030F822305B060DD530F8223023F4E04396
:102DCC0023F070031B041B0C43F4004343F0C003BB
:102DDC0020F82230CB78012B0FD030F8223023F49E
:102DEC00E04323F040031B041B0C83F0200343F44B
:102DFC00004343F0800320F822300020704730F865
:102E0C0022305B040DD530F8223023F4E04323F05C
:102E1C0070031B041B0C43F4404343F0800320F865
:102E2C00223030F8223023F4804323F070031B044B
:102E3C001B0C83F44053DAE711B98023A0F84C3013
:102E4C00002070470020704700207047B0F8440005
:102E5C0080B270470020704700EB4200013300F550
:102E6C0080605B0800EB8303834200D1704731F82C
:102E7C00022B20F8042BF7E72DE9F0474B7804469A
:102E8C00012B0D460A7B40F01881D1F810908F6908
:102E9C0049694F4528BF4F460ABBBFB2EA883B463B
:102EAC00FFF7DAFFB4F85000297880B204F204423C
:102EBC00090102448F522A7834F8223023F4E0437B
:102ECC0023F040031B041B0C83F03003002043F45D
:102EDC00004343F0800324F82230BDE8F087EB7800
:102EEC0095F800E0022B2E6A4FEA0E1C40F0D080C1
:102EFC00B14530F82E2080F0B48022F4E04222F06C
:102F0C0070021204120C42F4014242F0800220F8CA
:102F1C002E2030F82E80B0F850E0F61B18F0400848
:102F2C002E6201EB070ABBB21FFA8EFE4ED000F2E6
:102F3C000C42724422F80C306A89FFF78DFFB145C0
:102F4C0036BFF31B00233E466A782B62C5F814A0EB
:102F5C00B3B27ABBB4F85020287892B204F2044190
:102F6C0000011144425A3E2EC2F30902425214D9B6
:102F7C00425A7709F60608BF07F1FF3792B242EAC8
:102F8C0087226FEA42426FEA524292B242522A8937
:102F9C0051462046FFF760FF8DE70EB9425AF0E725
:102FAC00F207425A4FEA560748BF013792B242EA3B
:102FBC008722EAE7012AEAD1B4F85000297880B2D6
:102FCC0004F20442090102448B52E0E700F204428D
:102FDC00724422F80C302A89FFF73EFFB14536BF08
:102FEC00F31B43463E466A782B62C5F814A0B3B275
:102FFC005ABBB4F85020287892B204F20C4100016C
:10300C001144425A3E2EC2F30902425210D9425A7E
:10301C007709F60608BF07F1FF3792B242EA87221A
:10302C006FEA42426FEA524292B242526A89AFE769
:10303C000EB9425AF4E7F207425A4FEA560748BF14
:10304C00013792B242EA8722EEE7012AEED1B4F8B8
:10305C005000297880B204F20C42090102448B52D0
:10306C00E4E722F4E24222F070021204120C42F461
:10307C00004242F0800220F82E20B0F8503000F2CE
:10308C0004429BB21A44B3B222F80C302A8981E76D
:10309C00F61B30F82E202E62B0F85060BBB25706EB
:1030AC00B6B206D500F20C42324422F80C306A89D2
:1030BC0070E700F204423244E6E7002A3BD18B6908
:1030CC000969B0F850008B4284BF5A1A0B46297814
:1030DC00AA6180B204F20C4209010244885A3E2BC8
:1030EC00C0F3090088521AD95809DE068B5A08BF5A
:1030FC0000F1FF309BB243EA80236FEA43436FEA4F
:10310C0053439BB28B522A7834F8223023F48043F9
:10311C0023F070031B041B0C83F44053D6E60BB94D
:10312C008B5AEAE75808DB078B5A48BF01309BB231
:10313C0043EA8023E5E7CA78022A70D1002B38D104
:10314C00B0F850200B7892B200F204401B011044EE
:10315C00C25AC2F30902C2520A693E2A46D9C15A5E
:10316C005609D70608BF06F1FF3689B241EA862117
:10317C006FEA41416FEA514189B2C152B4F8500033
:10318C0004F20C4180B20144C85A3E2AC0F3090033
:10319C00C85238D95009D706CA5A08BF00F1FF30B7
:1031AC0092B242EA80226FEA42426FEA524292B2F3
:1031BC00CA52EB69002BA6D044F240032A7834F8AB
:1031CC00221003EA01008B4301D000289BD134F874
:1031DC00223023F4E04323F070031B041B0C43F454
:1031EC00004343F0C00324F822308CE70AB9C15ADB
:1031FC00BEE7D107C15A4FEA520648BF013689B221
:10320C0041EA8621B8E70AB9CA5ACCE75008D60772
:10321C00CA5A48BF013092B242EA8022C7E7012A5B
:10322C005DD18A6909698A4294BF0020501AA8614D
:10323C0088BF0A46002B7FF466AFB4F850102B7889
:10324C0089B204F204401B010844C15A3E2AC1F35E
:10325C000901C1522BD9D106C15A4FEA521608BFE7
:10326C0006F1FF3689B241EA86216FEA41416FEAE5
:10327C00514189B2C152B4F8500004F20C4180B2F1
:10328C000144C85A3E2AC0F30900C8521BD9500940
:10329C00D606CA5A08BF00F1FF3092B242EA802229
:1032AC006FEA42426FEA524292B2CA522BE70AB913
:1032BC00C15ADAE7C15A5608D70748BF013689B256
:1032CC0041EA8621D5E70AB9CA5AE9E75008D2077C
:1032DC00CA5A48BF013092B242EA8022E4E7012088
:1032EC00FBE500EB4200F0B500F580605D080C4694
:1032FC0007462E46023436B9DB0744BF30F825307A
:10330C0001F81530F0BD37F8042B013E92B204F8E9
:10331C00022C120A04F8012CECE7D0F8BC3210B5E0
:10332C006BB1D0F8B84294F80002FF2807D09B6824
:10333C00214694F801229847FF2384F8003200209C
:10334C0010BD00004323038000487047500000204C
:10335C0043230380004870479400002043230380DC
:10336C00004870470C0000200A2303800048704777
:10337C001001002038B50446D0F8B85200F0C4FE55
:10338C00D4F8B832C5F80C024BB1D4F8BC32D5F82D
:10339C000402DB6805F503719847002038BD022054
:1033AC00FCE7F8B5D0F8B862CEB1142202FB0102EA
:1033BC00D369D0F8C05273B1282707FB0154246A93
:1033CC00B3FBF4F504FB15332BB9D3611A4600F0AB
:1033DC0089FE0020F8BD0023C6F81432F9E702205C
:1033EC00F8E70023F7B50F788DF80530ADF8063007
:1033FC0017F0600304460D46D0F8B86222D0202B9B
:10340C003AD1CA884B78BAB139060BD5D0F8BC1270
:10341C0018468F683146B84731462046EA8800F096
:10342C004DFC06E0314686F8003286F8012200F0A9
:10343C005AFC002003B0F0BDD0F8BC0284681846DA
:10344C00A047F6E74B780A2B0AD00B2B10D09BB970
:10345C0090F89C32032B0FD102220DF10601DEE70E
:10346C0090F89C32032B07D101220DF10501D6E710
:10347C0090F89C32032BDCD02046294600F0F7FB59
:10348C000220D7E738B504460025812100F0F5FD70
:10349C0001212046E56200F0F0FD82212046C4F8AF
:1034AC006C5100F0EAFDD4F8B83225644BB1D4F875
:1034BC00BC325B689847D4F8B80200F02DFEC4F813
:1034CC00B852002038BD70B5037C0446A3BB4FF442
:1034DC0000738121022200F0C4FD01214FF400731E
:1034EC00E16201250222204600F0BBFD08230322E5
:1034FC0082212046C4F86C5100F0B3FD4FF40770E4
:10350C00256400F005FE0646C4F8B802F8B1D4F8FC
:10351C00BC321B6898470023C6F81432C6F8183220
:10352C00237C93B94FF4007329462046D6F8042225
:10353C0000F0E1FD002070BD40238121022200F04B
:10354C0090FD01214023E162CBE74023ECE72846C4
:10355C00F1E719B1C0F8BC12002070470220704787
:10356C00D0F8B8320020C3F80812C3F81022704704
:10357C00D0F8B8320020C3F804127047D0F8B82243
:10358C0010B582B1D2F81442012374B9C2F81432C6
:10359C00D2F8103281210363D2F808229BB200F0DA
:1035AC00A1FD204610BD0220FCE71846FAE7D0F832
:1035BC00B82208B562B1037CD2F8042233B94FF4B7
:1035CC000073012100F097FD002008BD4023F8E7AF
:1035DC000220FAE708B580B1D0F8B43213B1002359
:1035EC00C0F8B43209B1C0F8B0120123027080F8EF
:1035FC009C3200F0EDFC002008BD0220FCE719B164
:10360C00C0F8B412002070470220704708B500F0D3
:10361C001FFD002008BD08B5D0F8B43233B11B68CB
:10362C009847003818BF0120400008BD0220FCE775
:10363C0008B5D0F8B4325B689847002008BD38B59F
:10364C0000F52A750446284600F006FB012394F881
:10365C00A812C4F89432B4F8AE32C4F8983201F01F
:10366C001F03012B08D0022B0BD07BB92946204617
:10367C0000F0FAF8002038BD2946204600F03CFA4C
:10368C00F8E72946204600F05BFAF3E7204601F004
:10369C00800100F0FBFCEDE770B50446164639BB23
:1036AC00D0F89422032A1CD1D0E9585295420BD958
:1036BC00AD1AAA423146C0F860518CBFAAB292B280
:1036CC0000F01EFB002070BDD0F8B4321B6923B192
:1036DC0090F89C22032A00D19847204600F018FB52
:1036EC00F0E7052AEED1C4F8941200F0CFFCE9E71C
:1036FC00D0F8B4329B692BB190F89C22032A01D1EB
:10370C009847DFE70220DEE7F8B5044613460F467C
:10371C00002949D1D0F89422022A3AD1D0E908568E
:10372C00B54211D9AD1B19460562AAB200F0D3FA05
:10373C003B461A461946204600F0DDFC94F8A032B0
:10374C00012B2DD00020F8BDC369B3FBF6F506FBA9
:10375C00153565B99E420AD8D0F89822934206D204
:10376C002A4600F0B8FA2B46C4F89852E1E7D4F890
:10377C00B432DB682BB194F89C22032A01D1204689
:10378C0098478021204600F081FC204600F0CBFABF
:10379C00D4E732F00403D1D1802100F077FCCDE7DF
:1037AC00002384F8A032CDE7D0F8B4325B692BB19A
:1037BC0090F89C22032A01D19847C3E70220C2E764
:1037CC00002270B50446012540261146402300F026
:1037DC0048FC3346802100222046C4F85851C4F8D6
:1037EC00646100F03EFC0021D4F8B832A561666239
:1037FC0084F89C52C4F894126160C4F8A41223B1EA
:10380C00D4F8B43220465B689847002070BD017430
:10381C000020704790F89C3280F89D32042380F889
:10382C009C320020704790F89C32042B04BF90F817
:10383C009D3280F89C320020704708B590F89C228D
:10384C00032A04D1D0F8B432DB6903B198470020C5
:10385C0008BD10B50446802100F018FC2046BDE8D8
:10386C001040002100F012BC37B50B78044603F071
:10387C006003202B0D4606D0402B04D063B12046AC
:10388C00FFF7E7FF05E0D4F8B432294620469B68E1
:10389C009847002003B030BD4B78092BEFD801A21C
:1038AC0052F823F0B33A0008E93A00088B380008C4
:1038BC00DB3A00088B380008D9390008D9380008E1
:1038CC008B380008833A00081B3A00080023ADF837
:1038DC0006304B881A0A013A062AD0D801A151F8B1
:1038EC0022F000BF0D390008313900084B390008AF
:1038FC008B3800088B3800088F390008A539000870
:10390C00D0F8B0321B68207C0DF106019847BDF849
:10391C000620EB88002A54D0002B49D1204600F019
:10392C00F7F9B6E7027CD0F8B43232B99B6A0DF1E4
:10393C000600984702234370E9E7DB6AF7E7DBB23E
:10394C00052B9CD8DFE803F003090D111519D0F8ED
:10395C00B0325B68002BD6D191E7D0F8B0329B68BF
:10396C00F8E7D0F8B032DB68F4E7D0F8B0321B6976
:10397C00F0E7D0F8B0325B69ECE7D0F8B0329B6975
:10398C00E8E7037C002B7FF47AAFD0F8B4320DF16A
:10399C0006005B6B9847BAE7037C002B7FF46FAF94
:1039AC00D0F8B4320DF106001B6B98470723C2E721
:1039BC009A4228BF1A4601462046ADF8062000F070
:1039CC007DF9EB88002B7FF464AFA7E78B88002B85
:1039DC007FF455AFCB88002B7FF451AF4D887F2DF2
:1039EC003FF64DAF90F89C32032B3FF448AFEDB24D
:1039FC00294680F89E5200F06CFB204600F088F9B6
:103A0C001DB1022384F89C3243E70123FAE789783D
:103A1C00384D012929703FF632AF90F89C32022BB9
:103A2C0008D0032B15D0FFF714FF20462978FFF799
:103A3C00FFFD2EE700293FF471AF01210323416004
:103A4C0080F89C322046FFF7E6FD02287FF466AF33
:103A5C0015E731B90223416080F89C32FFF7E8FD8D
:103A6C005CE7416801293FF459AFC9B2FFF7E0FDAB
:103A7C0029786160E6E7CA88012A7FF400AF90F8E4
:103A8C009C32022B0AD8002B3FF4F9AE01460023DE
:103A9C0041F8083F204600F011F9FAE6032B7FF4B9
:103AAC00EEAE011DF6E790F89C32013B022B3FF67F
:103ABC00E6AECA88022A7FF4E2AED0F8A432014600
:103ACC00002B0CBF0123032341F80C3FE2E74B888A
:103ADC00012B7FF4DEAEC4F8A4321FE790F89C32C1
:103AEC00013B022B3FF6CBAE4B88012B7FF4D1AEC2
:103AFC000023F0E7642E002038B50B78044603F061
:103B0C0060025B060D4601D5402A15D194F89C3213
:103B1C00013B022B10D82B79012B0DD8D4F8B432E1
:103B2C0029469B6820469847EB881BB910B920465C
:103B3C0000F0EEF8002038BD2046FFF78AFEF9E7CA
:103B4C0038B50A78044602F06002202A0B468D88AC
:103B5C0006D0402A04D05AB12046FFF77AFE05E081
:103B6C00D4F8B4221946204692689047002038BDFC
:103B7C005A78E9B2012A35D0032A21D0002AEBD198
:103B8C0090F89C32022B44D0032BE5D1142201F087
:103B9C000F0315F0800F02FB03034BD09B69002B26
:103BAC00DAD0142501F07F0303FB05558029054469
:103BBC004BD0204600F07CFA00284BD0012345E086
:103BCC0090F89C22022A1BD0032AC5D15A882AB904
:103BDC004A0603D0DB880BB900F058FA204600F0F7
:103BEC0097F8C3E790F89C22022A09D0032AB3D194
:103BFC005B88002BBAD14D06F0D000F050FAEDE7FF
:103C0C004B06A9D000F042FA8021204600F03EFA83
:103C1C00ACE74A06A0D12B064FF000034FF002028E
:103C2C004CBF00F1140100F5AA710B60204600F0A6
:103C3C0045F89BE7D3F85831002B8DD0142505FBA4
:103C4C00010505F5AA750029B3D100232B600222CA
:103C5C002946EBE72860FAE70B7803704B78437042
:103C6C004B8843808B888380CB88C380704710B58A
:103C7C000446802100F00AFA2046BDE810400021DD
:103C8C0000F004BA70B50D461646044670B1FCF748
:103C9C0061FAC3B201335B0033802B700323002025
:103CAC006B700223013C14F8011F01B970BD5A1C42
:103CBC00E954D2B20233DBB2A854F4E71346022221
:103CCC0010B5C0E90733C0F894220A46002100F071
:103CDC0009FA002010BD08B513460A46002100F071
:103CEC0001FA002008BD1346032210B5C0E9573372
:103CFC00C0F894220A46002100F0FDF9002010BD06
:103D0C0008B513460A46002100F0F5F9002008BD5D
:103D1C0008B50423C0F8943200231A46194600F063
:103D2C00E1F9002008BD08B50523C0F89432002342
:103D3C001A46194600F0DFF9002008BD08B500222C
:103D4C000E490F48FFF746FC08B1FCF7D5FB0D49AF
:103D5C000B48FFF754FC08B1FCF7CEFB0A490848A6
:103D6C00FFF7F7FB08B1FCF7C7FB0548FFF74EFC64
:103D7C0018B1BDE80840FCF7BFBB08BD60010020CE
:103D8C00682E0020D80000201C0100200020704765
:103D9C000020704770B504460D46074E014630466C
:103DAC00FFF7E6FB3046FFF702FC20462968FCF7DC
:103DBC00F9F9002070BD00BF682E002010B5064C2C
:103DCC00002220460549FFF7CBFB20460449FFF7AC
:103DDC00CFFB002010BD00BF682E00202C3100202E
:103DEC002C35002010B5094C0A46D4F8B832D3F85B
:103DFC00143243B901462046FFF7B2FB2046BDE81A
:103E0C001040FFF7BBBB012010BD00BF682E002087
:103E1C00122301480B8070474C01002004230148F9
:103E2C000B80704748010020002370B51E464D1CC6
:103E3C00040FB0F1204F34BF3034373401F8134045
:103E4C0005F813600133DCB2A2424FEA0010EFD840
:103E5C0070BD00001A2310B50B800A4BD3F8E8078D
:103E6C00D3F8F02780180AD0D3F8EC47064908227B
:103E7C00FFF7DAFF042220461031FFF7D5FF034885
:103E8C0010BD00BF00F0FF1F2E0100202C010020F0
:103E9C0010B5044C0A4604482146FFF7F3FE2046B1
:103EAC0010BD00BF6C350020AA41000810B5044CB1
:103EBC000A4604482146FFF7E5FE204610BD00BF28
:103ECC006C350020BA41000810B5044C0A46044871
:103EDC002146FFF7D7FE204610BD00BF6C350020F1
:103EEC00C741000810B5044C0A4604482146FFF7A8
:103EFC00C9FE204610BD00BF6C350020D241000821
:103F0C0018B102280CBF01200220704707B50E4BD8
:103F1C0002689A4215D103F5DA33DA69012142F4C9
:103F2C000002DA61DB69002203F400030193142020
:103F3C00019BFCF75DFE142003B05DF804EBFCF76D
:103F4C0087BE03B05DF804FB005C004000F52671F1
:103F5C00D0F8D402FFF773BB282303FB0103D0F87E
:103F6C00D402D3F86421FFF797BB282303FB01038A
:103F7C00D0F8D4025A6AFFF7C7BBD0F8D402FFF7C7
:103F8C005CBC10B583790446022B01D0FCF7B4FA63
:103F9C00D4F8D4020121FFF73AFCD4F8D402BDE8DE
:103FAC001040FFF70DBC000010B50446D0F8D40249
:103FBC00FFF730FCA37A23B1024A136943F00603DE
:103FCC00136110BD00ED00E0D0F8D402FFF72BBC5C
:103FDC0010B51D4B04461D480360082303710223D2
:103FEC0083710023C0F8D442C4F8C0024381037328
:103FFC00FDF729F808B1FCF77FFA002218231146C7
:10400C00D4F8C002FDF7A9FE582300228021D4F871
:10401C00C002FDF7A2FEC02300228121D4F8C00209
:10402C00FDF79BFE4FF4887300220121D4F8C002E7
:10403C00FDF793FE4FF4807300228221D4F8C00266
:10404C00FDF78BFE002010BD005C00408C39002079
:10405C0008B5D0F8C002FDF759F8BDE80840FFF7E5
:10406C004FBF10B51446D0F8C0021A462346FDF7D0
:10407C007DFDBDE81040FFF743BF08B5D0F8C00286
:10408C00FDF7A4FDBDE80840FFF73ABF08B5D0F82E
:10409C00C002FDF7FAFDBDE80840FFF731BF08B5D7
:1040AC00D0F8C002FDF727FEBDE80840FFF728BF97
:1040BC00282211F0800FD0F8C0321BBF01F07F0115
:1040CC0002FB013302FB0133987C08BF93F85201C9
:1040DC00704708B5D0F8C002FDF731F8BDE80840CC
:1040EC00FFF70EBF08B5D0F8C002FDF7B6FDBDE86E
:1040FC000840FFF705BF08B5D0F8C002FDF78EFDEC
:10410C00BDE80840FFF7FCBED0F8C002FDF79DBD2E
:10411C00004870476C3700207047704703460244D4
:10412C00934200D1704703F8011BF9E770B50026E4
:10413C000C4D0D4C641BA410A64209D100F01AF8CA
:10414C0000260A4D0A4C641BA410A64205D170BD72
:10415C0055F8043B98470136EEE755F8043B984771
:10416C000136F2E70C4200080C4200080C42000831
:10417C0010420008F8B500BFF8BC08BC9E4670475A
:0C418C00F8B500BFF8BC08BC9E467047A8
:1041980053746172740053746F70210044757264B3
:1041A800750053706163654D6F6E6F6368726F6DF4
:1041B80065004F70656E5761766556302E31004345
:1041C800444320436F6E6669670043444320496E49
:1041D80074657266616365000000000000000000FD
:1041E8000102030406070809010202030405060781
:0C41F80008090A0B0C0D0E0F101000003F
:0842040048BFFF7F010000002C
:04420C003101000874
:044210000D01000894
:1042140000127A00010000001000000009074300AA
:10422400020104C032090400000102020100052455
:1042340000100105240100010424020205240600E3
:10424400010705820308001009040100020A0000A6
:10425400000705010240000007058102400000003C
:1042640009024300020100C03209040000010202F5
:1042740001000524001001052401000104240202A8
:104284000524060001070582030800100904010043
:10429400020A000000070501024000000705810230
:1042A4004000000009024300020100C0320904007A
:1042B400000102020100052400100105240100018F
:1042C40004240202052406000107058203080010E5
:1042D40009040100020A00000007050102000200AF
:1042E4000705810200020000D3340008913400085D
:1042F400EF3300080000000027330008AF33000844
:1043040081330008000000000000000000000000ED
:104314005D33000851330008693300087533000821
:104324000A0600020000004001000000C93D000828
:10433400993D00089D3D0008A13D00081A030000B6
:104344000000000000000000000000000000000069
:104354000000000000000000040309041201000230
:104364000202004013BBC007000201020301000067
:104374001D3E0008293E00089D3E0008B93E000885
:0C438400613E0008D53E0008F13E000834
:10439000000000000000000000000000000000001D
:1043A000000000000000000000000000000000000D
:1043B00000000000000000000000000000000000FD
:1043C00000000000000000000000000000000000ED
:040000050800068960
:00000001FF
